:100000000C94D0210C9401220C9401220C94012216
:100010000C9401220C9401220C9401220C940122D4
:100020000C9401220C9401220C9401220C940122C4
:100030000C9401220C9453C10C9401220C940122C3
:100040000C9401220C94157B0C9401220C94012237
:100050000C9401220C9401220C9483EF0D947B29C3
:100060000C9401220C9428490C9401220C94012236
:100070000C9401220C9401220C9401220C94012274
:100080000C9401220C9401220C9401220C94012264
:100090000C9401220C9401220C9401220C94012254
:1000A0000C9401220C9401220C9401220C94012244
:1000B0000C9401220C9401220C9401220C94012234
:1000C0000C9401220C9401220C9401220C94012224
:1000D0000C9401220C9401220C94D6590C9497593B
:1000E0000C940122EF3B0C3C3D3C5A3C6F3C983C4D
:1000F000073D6D3D163ED440E340DB4029412D4194
:100100003E41F54453419F41D141F8411A4270426A
:1001100081429242A342B442C542F5448143F54430
:100120008A436F447544A14462F6C0F4F6F49EF627
:10013000F6F4F6F4F6F4F6F4F6F4F6F4F6F4F6F46F
:10014000F6F4F6F4F6F4F6F4F6F4F6F4F6F4F6F45F
:10015000F6F4F6F4F6F4F6F4F6F4F6F4F6F4F6F44F
:10016000F6F4F6F498F6F6F4F6F4F6F4F6F4F6F49B
:10017000F6F4F6F4F6F471F6F6F4F6F4F6F4F6F4B2
:10018000F6F4F6F4F6F4F6F4F6F4F6F4B5F6F3F461
:100190001401520116015401560126013001640177
:1001A0005A0144012A0136016A016E0126014A0101
:1001B0007001480176012E014E014601680150018F
:1001C0006C01580142013C014C0124012C01280121
:1001D0005001720118011C01084AD73B3BCE016E49
:1001E00084BCBFFDC12F3D6C74319ABD56833DDA8E
:1001F0003D00C77F11BED9E4BB4C3E916BAAAABE9D
:10020000000000803F05A84CCDB2D44EB93836A9C5
:10021000020C50B9918688083CA6AAAA2ABE000002
:1002200000803F000D946E040D94C8260D94BA26EC
:100230000D941A290D945E020D9424290D94630DDA
:100240000D94680D0D94FE2F0D94ED280D9402274A
:100250000D9406290D94E1260D94FC280D949C28FC
:100260000D94CF260D94650D0D94AF050D94E726E2
:100270000D9450060D946B040D94D9280D941C38E0
:100280000D9470040D94CF280D94DD260D94AB28A9
:100290000D94FD260D94F5260D94E3280D94A128C8
:1002A0000D942E290D94CB260D94BE260D94C426B4
:1002B0000D94C7280D94D9260D9481020D94190F21
:1002C0000D946B0D0D946F0B0D94D3260D9428098E
:1002D0000D94B5280D94EB260D94BF280D94EF26B0
:1002E0000D94F9260D9410290D9483040D949728EC
:1002F0000D9476030D942A094E414E494E495459A6
:10030000494E46CDCCCC3D0AD7233C17B7D13877E0
:10031000CC2B329595E6241FB14F0A0000204100F6
:1003200000C84200401C4620BCBE4CCA1B0E5AAE40
:10033000C59D74434F4D4D554E49434154494F4E11
:100340000044525952554E004552524F52530049A3
:100350004E464F004543484F0047322F47332062F7
:10036000616420706172616D65746572730A005317
:100370006C6565702E2E2E00206F6620004D424C5D
:100380002047323920706F696E74200059206F75D4
:1003900074206F662072616E67652028312D3329C5
:1003A0002E0A0058206F7574206F662072616E6788
:1003B000652028312D33292E0A004D657368207081
:1003C000726F62696E6720646F6E652E0A005374E7
:1003D000617274206D6573682070726F62696E67F8
:1003E00020776974682022473239205331222066F1
:1003F000697273742E0A004732380A473239205323
:1004000032004732392053320053746174653A2008
:10041000004D65736820626564206C6576656C6963
:100420006E6720686173206E6F20646174612E0AAC
:100430000053206F7574206F662072616E676520AF
:1004400028302D35292E0A004D65736820706F699C
:100450006E742063616E6E6F7420626520726573C6
:100460006F6C7665640A00526573756D696E6720FE
:100470007072696E74003344205072696E746572D4
:100480002072656164792E00436C69636B20746F20
:1004900020726573756D652E2E2E004E6F206D6F68
:1004A00076652E00456E642066696C65206C697304
:1004B000740A00426567696E2066696C65206C6924
:1004C00073740A004D313235005344207072696EE6
:1004D00074696E67206279746520004E6F742053D2
:1004E00044207072696E74696E670A002569730032
:1004F00025696D20256973002569682025696D20AF
:1005000025697300256964202569682025696D20A7
:10051000256973002569792025696420256968208B
:1005200025696D20256973005072696E74207469A5
:100530006D653A200050726F746563746564205075
:10054000696E0A006F6E2E0A006F66662E0A0047FB
:100550003236204465627567200045256920257381
:10056000003344205072696E746572207265616454
:10057000792E0054034F034803410333036F66662B
:100580000044454255473A004B494C4C45442E20C7
:10059000004D3131332053006F6B003344205072D3
:1005A000696E746572204F66662E00454D45524750
:1005B000454E43595F5041525345520043415345C4
:1005C0005F4C494748545F4252494748544E45534F
:1005D0005300544F47474C455F4C494748545300DC
:1005E000534F4654574152455F504F574552004272
:1005F00055494C445F50455243454E54004C455676
:10060000454C494E475F44415441005A5F50524F58
:100610004245004155544F4C4556454C00505249B7
:100620004E545F4A4F420050524F47524553530079
:100630004155544F5245504F52545F54454D500010
:10064000564F4C554D455452494300454550524F25
:100650004D0053455249414C5F584F4E5F584F46ED
:1006600046004649524D574152455F4E414D453A2D
:100670004D61726C696E20312E312E382028476909
:10068000746875622920534F555243455F434F4468
:10069000455F55524C3A68747470733A2F2F6769EE
:1006A000746875622E636F6D2F4D61726C696E4652
:1006B00069726D776172652F4D61726C696E205041
:1006C000524F544F434F4C5F56455253494F4E3A49
:1006D000312E30204D414348494E455F54595045D5
:1006E0003A3344205072696E7465722045585452F2
:1006F000554445525F434F554E543A312055554964
:10070000443A63656465326132662D343161322D5D
:10071000343734382D396231322D63353563363212
:100720006633363766660A002F2F20004D31343588
:1007300020533C696E6465783E206F7574206F6647
:100740002072616E67652028302D31290A005365BB
:100750007474696E672054726176656C20416363BE
:10076000656C65726174696F6E3A200053657474CC
:10077000696E6720526574726163742041636365BA
:100780006C65726174696F6E3A20005365747469A8
:100790006E67205072696E7420416363656C657288
:1007A0006174696F6E3A200053657474696E6720D6
:1007B0005072696E7420616E642054726176656C4B
:1007C00020416363656C65726174696F6E3A2000E5
:1007D000205A004475616C20456E6473746F7020FC
:1007E00041646A7573746D656E7420286D6D293A65
:1007F00020000001363726032B3C3D382AFF2E30DF
:100800003E12FFFFFF0809FF2C071A1C18FFFF0804
:10081000440A2C4324221EFFFFFFFFFFFF20643AFF
:100820000020693A0020703A0020643A0020693ABA
:100830000020703A0043290A0061626C6564202838
:100840006D696E2074656D702000436F6C64206567
:10085000787472756465732061726520004E6F2034
:1008600063617365206C696768740A004163746929
:1008700076652045787472756465723A2000556E0D
:100880006B6E6F776E20636F6D6D616E643A2022C0
:10089000004D353031005370656369616C204D65E2
:1008A0006E753A205265616420454550524F4D0A9D
:1008B000004D353030005370656369616C204D65C3
:1008C0006E753A205361766520454550524F4D0A6A
:1008D000004732380A473239005370656369616CEA
:1008E000204D656E753A204175746F204265642015
:1008F0004C6576656C696E670A004D333033204372
:10090000382053323030005370656369616C204D7C
:10091000656E753A204175746F2054756E65205070
:1009200049440A003C5370656369616C5F4D656EB4
:10093000753E003C5370656369616C5F4D656E7513
:100940003E002F002F002F002F2E2E0A002F2E2EBC
:10095000002F2E2E003C5370656369616C5F4D65FE
:100960006E753E0A003C5370656369616C204D658D
:100970006E753E003C5370656369616C204D656E19
:10098000753E003C5265616420454550524F4D3ED6
:10099000003C5265616420454550524F4D3E003C3D
:1009A0005361766520454550524F4D3E003C5361A2
:1009B000766520454550524F4D3E003C4175746F61
:1009C00020426564204C6576656C696E673E003C2C
:1009D0004175746F20426564204C6576656C696E64
:1009E000673E003C4175746F2054756E6520486FFA
:1009F00074656E64205049443E003C4175746F201C
:100A000054756E6520486F74656E64205049443E8D
:100A1000003C457869743E003C457869743E005658
:100A2000313136004A333320004D3530300A4D34F1
:100A300032302053310A4731205A31302046323487
:100A4000300A473120583020593020463630303077
:100A500000544654204C6576656C20736176696E4F
:100A60006720646174612E2E2E0A00544654205370
:100A7000657269616C2044656275673A204C6576E1
:100A8000656C696E67207072696E7420746573742A
:100A900020776974682068656174696E6720646F87
:100AA0006E652E2E2E204A32320A004A323200540F
:100AB0004654204C6576656C20636865636B2068DE
:100AC000656174696E672E2E2E0A005446542053B9
:100AD000657269616C2044656275673A204C657681
:100AE000656C696E67207072696E742074657374CA
:100AF00020646F6E652E2E2E204A32320A004A3252
:100B00003200544654204C6576656C2063686563FA
:100B10006B206E6F2068656174696E672E2E2E0AD9
:100B2000004731205A3520463234300A47312058A8
:100B3000313930205932302046363030300A473192
:100B4000205A30204632343000544654204C6576CA
:100B5000656C20636865636B706F696E7420626199
:100B6000636B2072696768742E2E2E0A004731204D
:100B70005A3520463234300A473120583139302036
:100B8000593139302046363030300A4731205A301A
:100B9000204632343000544654204C6576656C2033
:100BA000636865636B706F696E74206261636B204C
:100BB00072696768742E2E2E0A004731205A35203C
:100BC000463234300A4731205831393020593230DA
:100BD0002046363030300A4731205A3020463234F1
:100BE0003000544654204C6576656C20636865631C
:100BF0006B706F696E742066726F6E7420726967B5
:100C000068742E2E2E0A004739310A4731205A3196
:100C10003020463234300A4739300A4732380A47E2
:100C200032390A4731205832302059323020463686
:100C30003030300A4731205A3020463234300054A8
:100C40004654204C6576656C696E672073746172DA
:100C500074656420616E64206D6F76696E742074B3
:100C60006F2066726F6E74206C6566742E2E2E0A6D
:100C70000054465420456E746572696E67206C6539
:100C800076656C206D656E75652E2E2E0A005446B5
:100C9000542053657269616C2044656275673A201F
:100CA0005344206361726420696E697469616C6980
:100CB0007A65642E2E2E204A30320A004A303200E5
:100CC0005446542053657269616C204465627567AF
:100CD0003A20436F6F6C696E6720646F776E2E2EBB
:100CE0002E204A31320A004A3132004731205A312F
:100CF00030004F4B004731205A3130004739300027
:100D00004731204525694635303000473120452D93
:100D1000302E314625690047312045302E31462599
:100D200069004731205A2569462569004731205A14
:100D30002D302E31462569004731205A302E31465C
:100D4000256900473120592569462569004731202A
:100D5000592D302E314625690047312059302E312A
:100D600046256900473120582569462569004731E5
:100D700020582D302E314625690047312058302E1D
:100D8000314625690047393100473238004732384B
:100D9000205A004732382059004732382058004145
:100DA00032305620004731205A313000544654200A
:100DB00053657269616C2044656275673A205374AB
:100DC000617274696E67205344205072696E742E8C
:100DD0002E2E204A30340A004A3034005446542023
:100DE00053657269616C2044656275673A20466993
:100DF0006C65206F70656E206661696C65642E2E6F
:100E00002E204A32310A004A3231005446542053CF
:100E1000657269616C2044656275673A2046696C49
:100E200065206F70656E2073756363657373667597
:100E30006C2E2E2E204A32300A004A3230004B49A6
:100E40004C4C45442E200054465420536572696131
:100E50006C2044656275673A205344207072696E55
:100E60007420737461727465642E2E2E204A30349F
:100E70000A004A303400454E4400464E20004A30B5
:100E800032003939393A393939004D004800413793
:100E9000562000413656202D2D2D004A303200417B
:100EA000365620005A3A2000593A2000583A20007D
:100EB000413556004134562000413356200041321E
:100EC00056200041315620004130562000544654EF
:100ED0002053657269616C20436F6D6D616E643A79
:100EE00020004D3834005446542053657269616CBB
:100EF0002044656275673A205344207072696E74AD
:100F00002073746F707065642E2E2E204A31360A5D
:100F1000004A3136005446542053657269616C2092
:100F200044656275673A205344207072696E74207C
:100F300070617573656420646F6E652E2E2E204A75
:100F400031380A004A3138005446542053657269DA
:100F5000616C2044656275673A2053442070726961
:100F60006E7420646F6E652E2E2E204A31340A0076
:100F70004A3134005446542053657269616C2044F0
:100F8000656275673A205344206361726420696E1C
:100F90007365727465642E2E2E204A30300A004A22
:100FA0003030005446542053657269616C204465AA
:100FB0006275673A20534420636172642072656DE4
:100FC0006F7665642E2E2E204A30310A004A303169
:100FD000005446542053657269616C204465627503
:100FE000673A20486F74656E642074656D70657231
:100FF00061747572652061626E6F726D616C2E2E08
:101000002E204A32300A004A3130004D6573682084
:1010100056616C69646174696F6E2053746F70708F
:1010200065642E00696E206D6F76655F746F282988
:1010300020666565645F76616C756520666F7220F9
:1010400058593A004C656176696E67204732360020
:101050004732362048656174696E67204E6F7A7A30
:101060006C652E004732362048656174696E6720D2
:101070004265642E00446F6E65205072696D696E22
:101080006700446F6E65205072696D696E67004637
:1010900069786564204C656E677468205072696D6C
:1010A000652E00557365722D436F6E74726F6C6C94
:1010B0006564205072696D65002C2065793D0029BA
:1010C000202D3E202865783D002C2073793D00209E
:1010D000436F6E6E656374696E672077697468200C
:1010E000766572746963616C206C696E6520287323
:1010F000783D002C2065793D0029202D3E20286573
:10110000783D002C2073793D0020436F6E6E65633F
:1011100074696E67207769746820686F72697A6F86
:101120006E74616C206C696E65202873783D004C8C
:10113000656176696E6720473236002C2079693DFB
:1011400000202020446F696E6720636972636C65BC
:101150002061743A202878693D003F5370656369C7
:101160006669656420582C5920636F6F7264696EDC
:10117000617465206F7574206F6620626F756E6490
:10118000732E0A003F2852296570656174207661CC
:101190006C7565206E6F7420706C61757369626C1C
:1011A000653B206D757374206265206174206C65E9
:1011B00061737420312E0A003F537065636966695C
:1011C0006564206E6F7A7A6C652074656D706572E7
:1011D0006174757265206E6F7420706C61757369CF
:1011E000626C652E0A003F537065636966696564C9
:1011F0002066696C616D656E742073697A65206E16
:101200006F7420706C61757369626C652E0A003FA3
:10121000537065636966696564207072696D6520E5
:101220006C656E677468206E6F7420706C61757386
:1012300069626C652E0A003F537065636966696573
:1012400064206E6F7A7A6C652073697A65206E6FA0
:101250007420706C61757369626C652E0A003F536F
:101260007065636966696564205265747261637450
:10127000696F6E204D756C7469706C696572206E53
:101280006F7420706C61757369626C652E0A003F23
:1012900052657472616374696F6E204D756C746908
:1012A000706C696572206D7573742062652073704F
:1012B000656369666965642E0A003F5370656369FA
:1012C00066696564206C6179657220686569676824
:1012D00074206E6F7420706C61757369626C652E1A
:1012E0000A003F53706563696669656420626564DE
:1012F0002074656D7065726174757265206E6F74AF
:1013000020706C61757369626C652E0A0047323615
:1013100020636F6D6D616E642073746172746564B7
:101320002E2057616974696E6720666F7220686548
:10133000617465722873292E0A003D003F206164A4
:101340006472657373203A2000206279746573209B
:101350006F66206D656D6F727920696E6974696161
:101360006C697A65642E0A0A00556E61626C6520AC
:10137000746F20696E697469616C697A652E0A0AF6
:1013800000496E697469616C697A696E672066727A
:101390006565206D656D6F727920626C6F636B2E71
:1013A0000A0A0A00747275650A0020726574757203
:1013B0006E3D000A4D656D6F727920436F727275D4
:1013C0007074696F6E206465746563746564206908
:1013D0006E2066726565206D656D6F727920617231
:1013E00065612E0A002020626C6F636B5F666F750B
:1013F0006E643D00202020002920666F756E643DDC
:1014000000202800207370203C2048656170200077
:101410002073703D000A5F5F6273735F656E643AAC
:1014200020003D000A265F5F62726B76616C3A2095
:10143000000A666D632829206E3D00636865636B52
:101440005F666F725F667265655F6D656D6F7279FD
:101450005F636F7272757074696F6E2829203D200A
:101460000020627974657320617420000A4C6172F7
:1014700067657374206672656520626C6F636B20AC
:10148000697320000A4D656D6F727920436F727227
:10149000757074696F6E206465746563746564202B
:1014A000696E2066726565206D656D6F7279206169
:1014B0007265612E0A002062797465732066726518
:1014C000652061742000466F756E6420000A436FCA
:1014D0007272757074696E6720616464726573738B
:1014E0003A2000436F7272757074696E672066727D
:1014F0006565206D656D6F727920626C6F636B2E10
:101500000A0A000A537461636B20506F696E746538
:1015100072203A20000A7374617274206F6620662C
:10152000726565207370616365203A20000A5F5F11
:101530006273735F656E64203A20000A5F5F6272B7
:101540006B76616C203A2000736C6F743A005265C0
:1015500073656E643A20006F6B0020746F6F206CAF
:101560006F6E6720657874727573696F6E20707224
:101570006576656E7465640A0020636F6C6420652F
:101580007874727573696F6E2070726576656E74AB
:1015900065640A00627573793A20706175736564D9
:1015A00020666F7220696E7075740A0062757379B7
:1015B0003A2070617573656420666F72207573657B
:1015C000720A00627573793A2070726F6365737383
:1015D000696E670A004D363030005446542053651A
:1015E0007269616C2044656275673A2046696C6176
:1015F0006D656E742072756E6F75742E2E2E204A76
:1016000031350A004A313500544654205365726919
:10161000616C2044656275673A2046696C616D654E
:101620006E742072756E6F7574207265636F766567
:101630007265640A004B494C4C45442E20004B49CE
:101640004C4C20636175736564206279204B494C72
:101650004C20627574746F6E2F70696E0A004B496E
:101660004C4C45442E20004B494C4C206361757313
:10167000656420627920746F6F206D7563682069DE
:101680006E6163746976652074696D65202D2063D1
:10169000757272656E7420636F6D6D616E643A2051
:1016A00000506C65617365207265736574005052FB
:1016B000494E5445522048414C54454400544654E8
:1016C0002053657269616C2044656275673A204BEE
:1016D000696C6C20636F6D6D616E642E2E2E204AD6
:1016E00031310A004A3131005072696E74657220DE
:1016F00068616C7465642E206B696C6C28292063AA
:10170000616C6C6564210A000000A0C0000000004C
:1017100000000000000048420000484200008040F5
:10172000000000005761726E696E673A20486F6D65
:10173000696E672042756D702044697669736F72B7
:10174000203C20310A000202040000A0400000A05A
:10175000400000004000005C430000574300004D83
:1017600043FFFFFF20496E76616C696420657874E1
:10177000727564657220000000A0C00000000000C7
:10178000000000000057430000574300004D432075
:101790006E6F7420656E74657265642E0A000A4D62
:1017A0006561737572656420706F696E74733A0A4F
:1017B000005A206F66667365743A20004E756D207E
:1017C000582C593A20332C330A0046696C65206442
:1017D000656C657465643A0044656C6574696F6E28
:1017E000206661696C65642C2046696C653A20004E
:1017F0006F70656E206661696C65642C2046696C4B
:10180000653A20005446542053657269616C204447
:10181000656275673A204E6F7A7A6C65206973202D
:1018200068656174696E672E2E2E204A30360A0074
:101830004A3036005446542053657269616C204426
:10184000656275673A20436F6E74696E75696E677D
:10185000205344207072696E742061667465722032
:1018600068656174696E672E2E2E204A30340A0036
:101870004A3034005446542053657269616C2044E8
:10188000656275673A204E6F7A7A6C65206865618B
:1018900074696E6720697320646F6E652E2E2E202A
:1018A0004A30370A004A30370048656174696E670C
:1018B00020646F6E652E0020573A0045256920256B
:1018C00073003344205072696E74657220726561D2
:1018D00064792E0048617264636F646564204465B6
:1018E0006661756C742053657474696E6773204CFF
:1018F0006F616465640A00D0070000DC0500003CED
:10190000000000102700000000FA430000FA430026
:1019100000C0400000F0410000A0420000A04200D2
:1019200000C8435CEFC14320440020490020204D03
:1019300033303420500020440020490020204D3313
:1019400030312050005049442073657474696E67CB
:10195000733A0A0020460020420020480020204D13
:101960003134352053004D6174657269616C2068B3
:10197000656174757020706172616D6574657273F4
:101980003A0A00205A0020204D36363600456E6453
:1019900073746F702061646A7573746D656E743AE8
:1019A0000A00205A002059002020473239205333A2
:1019B000205800205A0020204D3432302053004D52
:1019C00065736820426564204C6576656C696E6756
:1019D0003A0A00205A0020590020204D323036208B
:1019E0005800486F6D65206F66667365743A0A002B
:1019F000204500205A002059002058002042002095
:101A0000540020204D323035205300416476616E01
:101A10006365643A20533C6D696E5F666565647208
:101A20006174653E20543C6D696E5F7472617665C9
:101A30006C5F66656564726174653E20423C6D69E9
:101A40006E5F7365676D656E745F74696D655F75F4
:101A5000733E20583C6D61785F78795F6A65726B80
:101A60003E205A3C6D61785F7A5F6A65726B3E20FA
:101A7000453C6D61785F655F6A65726B3E0A002068
:101A8000540020520020204D323034205000416359
:101A900063656C65726174696F6E2028756E697418
:101AA000732F7332293A20503C7072696E745F61F3
:101AB0006363656C3E20523C726574726163745F4F
:101AC000616363656C3E20543C74726176656C5F43
:101AD000616363656C3E0A00204500205A0020596E
:101AE0000020204D3230312058004D6178696D75ED
:101AF0006D20416363656C65726174696F6E202847
:101B0000756E6974732F7332293A0A0020450020DC
:101B10005A0020590020204D3230332058004D61AA
:101B200078696D756D206665656472617465732092
:101B300028756E6974732F73293A0A0020450020B6
:101B40005A0020590020204D393220580053746526
:101B500070732070657220756E69743A0A002020D7
:101B60004D3230302044300A0020204D32303020B9
:101B700044002044697361626C65640A0046696CC4
:101B8000616D656E742073657474696E67733A0075
:101B900020204D3134392043203B20556E69747329
:101BA00020696E2043656C736975730A00202047B5
:101BB0003231202020203B20556E69747320696EDD
:101BC000206D6D0A0066696C616D656E743A200067
:101BD0007A325F6D696E3A20007A5F6D696E3A20E5
:101BE00000795F6D696E3A2000785F6D696E3A200A
:101BF000005265706F7274696E6720656E647374ED
:101C00006F70207374617475730A0024F4D43050BB
:101C1000C38E20C2A24017828B7011127A910D815F
:101C20006CD90AA861E108C7586607615143061ECE
:101C30004B5D05C145A7041A411104093D98037184
:101C40003931034036DB0265339102D430540280CF
:101C50002E1D02632CEE01752AC501B028A00110CB
:101C60002781018F2564012B244B01E0223401AC34
:101C7000211F018D200D01801FFC00841EED0097A7
:101C80001DDF00B81CD200E61BC600201BBC006490
:101C90001AB200B219A8000A19A0006A189900D156
:101CA00017910040178B00B516840031167E00B3E3
:101CB0001579003A157300C7146F0058146A00EEC6
:101CC0001366008813630025135E00C7125B006C67
:101CD00012570015125400C111510070114F00210C
:101CE000114B00D61049008D1047004610440002E9
:101CF000104200C00F4000800F3E00420F3C000623
:101D00000F3B00CB0E3800930E37005C0E350027DA
:101D10000E3400F30D3200C10D3100900D30006023
:101D20000D2E00320D2D00050D2C00D90C2B00AE10
:101D30000C2900850C29005C0C2700350C27000EAF
:101D40000C2600E80B2400C40B2400A00B23007D0C
:101D50000B23005A0B2100390B2100180B2000F82F
:101D60000A1F00D90A1E00BB0A1E009D0A1D008022
:101D70000A1D00630A1C00470A1B002C0A1B0011E5
:101D80000A1A00F7091A00DD091900C4091900AB85
:101D9000091900920917007B091800630917004C04
:101DA00009160036091600200916000A091500F563
:101DB000081500E0081400CC081400B8081400A4AA
:101DC000081400900813007D0812006B08130058D7
:101DD00008120046081200340811002308110012EE
:101DE00008110001081100F0071000E0071000D0F2
:101DF000071000C0071000B0070F00A107100091E6
:101E0000070E0083070F0074070F0065070E0057C9
:101E1000070E0049070E003B070D002E070E00209D
:101E2000070D0013070D0006070D00F9060C00ED65
:101E3000060D00E0060C00D4060C00C8060C00BC21
:101E4000060C00B0060C00A4060B0099060C008DD1
:101E5000060B0082060B0077060B006C060B006178
:101E6000060A0057060B004C060A0042060A003814
:101E7000060A002E060A0024060A001A060A0010A6
:101E800006090007060A00FD050900F4050900EB34
:101E9000050900E2050900D9050900D0050900C7B8
:101EA000050900BE050900B5050800AD050800A537
:101EB0000509009C050800940508008C05080084AD
:101EC0000508007C050800740508006C050700651E
:101ED0000508005D050700560508004E0507004788
:101EE0000507004005080038050700310507002AEE
:101EF000050700230507001C050600160507000F4F
:101F00000507000805060002050700FB040600F5AA
:101F1000040700EE040600E8040600E2040700DB04
:101F2000040600D5040600CF040600C9040600C359
:101F3000040600BD040600B7040600B1040500ACA9
:101F4000040600A6040600A00405009B04060095F4
:101F5000040500900406008A04050085040500803D
:101F60000406007A04050075040500700405006B82
:101F700004050066040500610405005C04050057C3
:101F8000040500520405004D040500480405004303
:101F90000405003E0404003A040500350405003041
:101FA0000404002C04050027040400230405001E7B
:101FB0000404001A04040016040500110404000DB2
:101FC000040400090405000404040000040400FCE7
:101FD000030400F8030400F4030400F0030400EC1D
:101FE000030400E8030400E4030400E0030400DC4D
:101FF000030400D8030400D4030400D0030400CC7D
:10200000030400C8030300C503030024F404D9201B
:102010001BC40C5C0E9804C4095F0265077101F4CF
:1020200005F900FB04B30048048700C103690058A8
:1020300003550003034500BE023A008402310053F9
:10204000022A002902250004022000E4011C00C825
:10205000011900AF011700980114008401130071E9
:102060000110006101100051010E0043010D003606
:10207000010B002B010B0020010B00150109000CC6
:1020800001090003010800FB000800F3000800EB51
:10209000000700E4000600DE000600D8000600D2BB
:1020A000000600CC000500C7000500C2000500BD09
:1020B000000400B9000400B5000400B1000400AD44
:1020C000000400A9000400A5000300A20003009F73
:1020D0000004009B00030098000300950002009399
:1020E000000300900003008D0002008B00030088B5
:1020F0000002008600020084000300810002007FCD
:102100000002007D0002007B0002007900020077DF
:1021100000010076000200740002007200010071EC
:102120000002006F0002006D0001006C0002006AF6
:1021300000010069000200670001006600010065FF
:102140000001006400020062000100610001006003
:102150000001005F0002005D0001005C0001005B07
:102160000001005A00010059000100580001005709
:102170000001005600010055000100540001005309
:102180000000005300010052000100510001005006
:102190000001004F0001004E0000004E0001004D04
:1021A0000001004C0001004B0000004B0001004A00
:1021B00000010049000100480000004800010047FC
:1021C00000010046000000460001004500000045F7
:1021D00000010044000100430000004300010042F0
:1021E00000000042000100410000004100010040E9
:1021F0000001003F0000003F0001003E0000003EE3
:102200000001003D0000003D0001003C0000003CDA
:102210000000003C0001003B0000003B0001003AD0
:102220000000003A000100390000003900010038C8
:1022300000000038000000380001003700000037BF
:1022400000010036000000360000003600010035B5
:1022500000000035000000350001003400000034AB
:1022600000000034000100330000003300000033A0
:102270000001003200000032000000320001003195
:10228000000000310000003100010030000000308B
:10229000000000300001002F0000002F0000002F80
:1022A0000000002F0001002E0000002E0000002E74
:1022B0000001002D0000002D0000002D0000002D69
:1022C0000001002C0000002C0000002C0000002C5D
:1022D0000001002B0000002B0000002B0000002B51
:1022E0000001002A0000002A0000002A0000002A45
:1022F0000001002900000029000000290000002939
:10230000000000290001002800000028000000282B
:10231000000000280000002800010027000000271E
:102320000000002700000027000000270001002611
:102330000000002600000026000000260000002605
:1023400000010025000000250000002500000025F8
:1023500000000025000000250001002400000024EA
:1023600000000024000000240000002400010023DD
:1023700000000023000000230000002300000023D1
:1023800000000023000000230001002200000022C2
:1023900000000022000000220000002200000022B5
:1023A00000010021000000210000002100000021A8
:1023B0000000002100000021000000210001002099
:1023C000000000200000002000000020000000208D
:1023D0000000002000000020000000200001001F7D
:1023E0000000001F0000001F0000001F0000001F71
:1023F0000000001F0000001F0001001E0000001E62
:102400000000001E0000001E0000004D383420585F
:102410002059205A2045002CFFFFFFFF0001010139
:10242000016265640A002C2073797374656D2073F2
:10243000746F7070656421204865617465725F49CE
:10244000443A200048656174696E67206661696C72
:1024500065640048656174696E67206661696C65D2
:10246000640048656174696E67206661696C6564C3
:102470000048656174696E67206661696C65640017
:102480007C3C3E5E2B3D3F2F5B5D3B2C2A225C005B
:102490004572726F722077726974696E6720746F0B
:1024A00020454550524F4D210A004D3630302048CE
:1024B0006F74656E6420746F6F20636F6C6420743A
:1024C0006F206368616E67652066696C616D656E1B
:1024D000740A00436172642072656D6F76656400F2
:1024E0004361726420696E736572746564000006EE
:1024F0000900FE0701920321207FFF07FF07FF006D
:10250000000006000001070706020080808080802E
:102510000080030202060105A0A0050707060000CF
:102520005050F850F850500507070600002078A0DA
:102530007028F020050707060000C0C8102040984A
:10254000180507070600006090A040A890680203E5
:1025500003060104C04080030707060100204080F5
:102560008080402003070706010080402020204093
:102570008005050506000120A870A82005050506B0
:1025800000012020F820200203030602FFC0408043
:10259000050101060003F8020202060200C0C005A0
:1025A0000505060001081020408005070706000009
:1025B0007088888888887003070706010040C0403B
:1025C000404040E0050707060000708808708080E2
:1025D000F8050707060000F81020100808F00507A6
:1025E0000706000010305090F8101005070706008D
:1025F00000F880F008088870050707060000708062
:1026000080F0888870050707060000F80810202071
:1026100020200507070600007088887088887005EC
:10262000070706000070888878080870020505060C
:102630000200C0C000C0C00206060602FFC0C00003
:10264000C040800407070600001020408040201092
:10265000050303060002F800F804070706010080DE
:1026600040201020408005070706000070880810F1
:1026700020002005070706000070880868A8A870D9
:10268000050707060000708888F88888880507070E
:10269000060000F08888F08888F00507070600002B
:1026A00070888080808870050707060000F08888A1
:1026B000888888F0050707060000F88080F0808091
:1026C000F8050707060000F88080F0808080050785
:1026D00007060000708880B8888870050707060024
:1026E00000888888F88888880107070602008080AB
:1026F00080808080800507070600003810101010C9
:1027000090600507070600008890A0C0A09088058B
:102710000707060000808080808080F80507070694
:10272000000088D8A88888888805070706000088E0
:1027300088C8A898888805070706000070888888D8
:10274000888870050707060000F08888F080808080
:1027500005070706000070888888A89068050707A5
:10276000060000F08888F0A09088050707060000A2
:10277000788080700808F0050707060000F8202020
:102780002020202005070706000088888888888880
:10279000700507070600008888888888502005078C
:1027A000070600008888888888A850050707060063
:1027B0000088885020508888050707060000888810
:1027C0008850202020050707060000F80810204048
:1027D00080F8030707060100E08080808080E00524
:1027E00005050600018040201008030707060100C8
:1027F000E02020202020E00503030600042050886C
:10280000050101060000F8020202060205804005EB
:10281000050506000070087888780507070600009F
:102820008080B0C88888F0050505060000708080AB
:1028300088700507070600000808689888887805EA
:1028400005050600007088F880700507070600007F
:102850003048E0404040400506060600FF7088888A
:102860007808700507070600008080B0C88888884F
:10287000010707060200800080808080800308082E
:102880000601FF200020202020A0400407070600AA
:1028900000808090A0C0A090030707060100C04000
:1028A00040404040E0050505060000D0A8A8A8A8C3
:1028B000050505060000B0C88888880505050600DE
:1028C0000070888888700506060600FFF08888F08A
:1028D00080800506060600FF7888887808080505C8
:1028E00005060000B0C88080800505050600007060
:1028F000807008F00407070600004040E0404040B8
:1029000030050505060000888888986805050506D5
:10291000000088888850200505050600008888A8E2
:10292000A8500505050600008850205088050606B9
:102930000600FF888888780870050505060000F8FD
:10294000102040F803070706010020404080404067
:1029500020010707060200808080808080800307B6
:10296000070601008040402040408005020206002A
:1029700002689000000006000020746F6F206C6FEA
:102980006E6720657874727573696F6E20707265FA
:1029900076656E7465640A0020636F6C64206578E8
:1029A00074727573696F6E2070726576656E74658A
:1029B000640A0025753A2530327500253032753AA3
:1029C000253032750025756420253032753A253062
:1029D0003275005A0059005800092000000000001C
:1029E00000000000000000007FFFE0000000000089
:1029F000000000000000007000E000000000000087
:102A000000000000000061F860000000000000000D
:102A1000000000000041F82000000000000000005D
:102A20000000000040F02000000000000000000056
:102A300000000040602000000000000000000000D6
:102A400000005801A07F8000000000000000410449
:102A5000005C63A0FFC000000000000000208200B6
:102A60005EF7A0FFC0000000000000002082005EB2
:102A7000F7A0FFC0000000000000004104005C63FC
:102A8000A07F80000000000000008208005801A024
:102A90007F8000000000000001041000406020FF63
:102AA000C00000000000000104100040F020FFC042
:102AB0000000000000000082080041F820FFC00074
:102AC00000000000000041040061F8603F000000C9
:102AD00000000000000000007000E01E0000000088
:102AE00000000001FFFF807FFFE00C0000000000FD
:102AF000000001FFFF800000000000000000000057
:102B000000000000007FFFE0000000000000000067
:102B1000000000007000E000000000000000000065
:102B2000000000630C6000000000000000000000D6
:102B30000000470E20000000000000000000000020
:102B4000004F0F2000000000000000000000000007
:102B50005F0FA00000000000000000000000005E09
:102B600007A07F80000000000000004104004060DA
:102B700020FFC00000000000000020820040F02084
:102B8000FFC00000000000000020820040F020FF95
:102B9000C0000000000000004104004060207F8071
:102BA000000000000000008208005E07A07F800097
:102BB0000000000000010410005F0FA0FFC0000033
:102BC00000000000010410004F0F20FFC0000000B3
:102BD00000000000820800470E20FFC00000000037
:102BE000000000410400630C603F00000000000092
:102BF00000000000007000E01E0000000000000067
:102C000001FFFF807FFFE00C0000000000000001DA
:102C1000FFFF800000005072696E74207061757350
:102C20006564004D31323500004D32340050726918
:102C30006E742061626F72746564004E6F2053443D
:102C40002063617264005072696E742066726F6DE9
:102C50002053440053746F70207072696E74005278
:102C60006573756D65207072696E740041626F7571
:102C700074205072696E74657200506175736520BE
:102C80007072696E7400436F6E74726F6C00507274
:102C900065706172650054756E6500496E666F20DF
:102CA00073637265656E0020204E6F7A7A6C653AA8
:102CB00020006368616E6765006F66207468652038
:102CC00066696C616D656E74005761697420666F2A
:102CD00072207374617274005052494E54205041F6
:102CE000555345440020204E6F7A7A6C653A200097
:102CF000200066696C616D656E7420756E6C6F6125
:102D000064005761697420666F72005052494E54D6
:102D1000205041555345440020204E6F7A7A6C650F
:102D20003A20002000506C656173652077616974FA
:102D30002E2E2E0048656174696E67206E6F7A7A58
:102D40006C65005052494E54205041555345440043
:102D500020204E6F7A7A6C653A2000200068656109
:102D600074206E6F7A7A6C652E00507265737320D2
:102D7000627574746F6E20746F005052494E542007
:102D80005041555345440020204E6F7A7A6C653A85
:102D90002000746F20636F6E74696E75652E2E2E21
:102DA00000616E6420707265737320627574746F55
:102DB0006E00496E736572742066696C616D656E34
:102DC00074005052494E5420504155534544002000
:102DD000204E6F7A7A6C653A2000200066696C613B
:102DE0006D656E74206C6F61640057616974206654
:102DF0006F72005052494E54205041555345440083
:102E000020204E6F7A7A6C653A2000200066696C4B
:102E1000616D656E742065787472756465005761C4
:102E2000697420666F72005052494E5420504155CB
:102E300053454400746F20726573756D650057616A
:102E4000697420666F72207072696E740050524906
:102E50004E5420504155534544000254465420538B
:102E6000657269616C2044656275673A2046696CD9
:102E7000616D656E742072756E6F75742E2E2E20C6
:102E80004A31350A004A3135004A3132004A313779
:102E9000001FFFFFFFFFFFFF600000000001FF4079
:102EA0000000000000FF8000000000007F83CF00D2
:102EB000000C303F87FF80000C301F867980000CAB
:102EC000000F8C30C7838C30E78C30CFC7CC31F308
:102ED0008C30DCECEC33B98C30D86C6C33198C3022
:102EE000D06C0C33198C30D86C0C33198C30DC6CF2
:102EF0000E3B198C30CF7C079F198C30C77C038F19
:102F00001940000000000002600000000000061FE1
:102F1000FFFFFFFFFFF82020506C616E6E6572426C
:102F2000756666657242797465733A200020467250
:102F30006565204D656D6F72793A2000436F6D7045
:102F4000696C65643A20536570202031203230313D
:102F5000390A00207C20417574686F723A2028413C
:102F60006E796375626963206933204D65676129F5
:102F70000A00323031372D31322D32352031323A9C
:102F8000303000204C617374205570646174656446
:102F90003A2000312E312E380A004D61726C696E74
:102FA0000020536F66747761726520526573657493
:102FB0000A00205761746368646F67205265736507
:102FC000740A002042726F776E206F75742052650C
:102FD0007365740A002045787465726E616C2052C6
:102FE000657365740A00506F77657255700A0073D7
:102FF000746172740A006572726F722077726974FC
:10300000696E6720746F2066696C650A00456E649E
:1030100073746F707320256320256320256320253A
:103020006300205A3A0020593A0020583A00656E51
:103030006473746F7073206869743A2000446F6E13
:103040006520736176696E672066696C652E0A007B
:103050004D3239004C6576656C696E6720446F6E41
:103060006521004D6F7665205A0047323920533272
:10307000004E65787420506F696E74002569202FAA
:10308000202575004732392053310047323920530B
:103090003200436C69636B20746F20426567696E10
:1030A00000486F6D696E672058595A0047323800E2
:1030B00053746F72652073657474696E6773004C26
:1030C0006F61642073657474696E6773004C657614
:1030D000656C20636F726E657273004C6576656C0B
:1030E0002062656400426564205A00426564205A8B
:1030F00000466164652048656967687400466164DC
:103100006520486569676874004F6666004F6E20E9
:1031100000426564204C6576656C696E670050728C
:103120006570617265004D343238005072656865B3
:10313000617420504C4100436F6F6C646F776E0078
:103140004368616E67652066696C616D656E7400C9
:10315000507265686561742041425300446973612F
:10316000626C65207374657070657273004D3834DD
:103170000053657420686F6D65206F6666736574B3
:103180007300426564204C6576656C696E6700412A
:1031900075746F20686F6D6500473238004D6F762B
:1031A000652061786973004D61696E004D6F7665C9
:1031B0002058004D6F76652059004D6F7665205A76
:1031C000004578747275646572004D6F76652030C5
:1031D0002E316D6D004D6F766520316D6D004D6F38
:1031E00076652031306D6D004D6F766520617869B0
:1031F00073004578747275646572004D6F76652052
:103200005A004D6F76652059004D6F766520580045
:103210004578747275646572004D6F7665205A004A
:103220004D6F76652059004D6F76652058005072BD
:10323000657061726500496E697469616C697A656F
:1032400020454550524F4D00436F6E74726F6C00B5
:10325000526573746F7265206661696C736166652F
:10326000004C6F61642073657474696E6773004904
:103270006E697469616C697A6520454550524F4D9D
:103280000053746F72652073657474696E677300A0
:1032900046696C616D656E74004D6F74696F6E0088
:1032A00054656D7065726174757265004D61696E0B
:1032B000004D333033205531204525692053256991
:1032C00000507265686561742041425320636F6EDF
:1032D00066005072656865617420504C4120636FD0
:1032E0006E6600504944204175746F74756E6500B8
:1032F000504944204175746F74756E65005049449F
:10330000204175746F74756E65005049442D4400FA
:103310005049442D44005049442D49005049442D02
:1033200049005049442D50005049442D5000200878
:103330002046616374002008204661637400200801
:10334000204D6178002008204D6178002008204D34
:103350006178002008204D696E002008204D696EBC
:10336000002008204D696E004F6666004F6E2000F9
:103370004175746F74656D700046616E2073706581
:1033800065640046616E2073706565640046616E19
:1033900020737065656400426564004265640042A4
:1033A0006564004E6F7A7A6C65004E6F7A7A6C6550
:1033B000004E6F7A7A6C6500436F6E74726F6C00AA
:1033C00053746F72652073657474696E677300421D
:1033D00065640042656400426564004E6F7A7A6CF1
:1033E00065004E6F7A7A6C65004E6F7A7A6C650074
:1033F00046616E2073706565640046616E2073706F
:103400006565640046616E2073706565640054658F
:103410006D70657261747572650053746570732F99
:103420006D6D004A65726B00416363656C65726126
:1034300074696F6E0056656C6F6369747900436FD1
:103440006E74726F6C0046696C2E204469612E00A8
:1034500046696C2E204469612E004F6666004F6EEF
:1034600020004520696E206D6D3300436F6E7472CD
:103470006F6C00022E2E004D61696E004D61782048
:1034800054656D703A20313530004D696E205465B9
:103490006D703A203500544265643A4550434F53AD
:1034A000203130304B004D61782054656D703A20EA
:1034B000323435004D696E2054656D703A20350008
:1034C00054303A204154432031303447542D320097
:1034D0005053553A204154580050726F746F636FC7
:1034E0006C3A20312E3000426175643A203235301A
:1034F00030303000545249474F52494C4C41004DF6
:10350000657368204C6576656C696E6700457874F4
:103510007275646572733A203100687474703A2F62
:103520002F6D61726C696E66772E6F72670033441F
:10353000205072696E74657200323031372D31322D
:103540002D32352031323A303000312E312E3800D4
:103550004D61726C696E00546865726D6973746F49
:10356000727300426F61726420496E666F00507220
:10357000696E74657220496E666F004D61696E00F8
:1035800020204E6F7A7A6C653A20002000426163F9
:103590006B004D696E696D756D2054656D702069A5
:1035A00073203137302E0048656174696E6720667C
:1035B00061696C65640045787472756465206D6F2F
:1035C000726500526573756D65207072696E740066
:1035D000524553554D45204F5054494F4E533A0094
:1035E0005446542053657269616C20446562756766
:1035F0003A204265642069732068656174696E676A
:103600002E2E2E204A30380A004A303800544654B4
:103610002053657269616C2044656275673A204287
:1036200065642068656174696E6720697320646FE2
:103630006E652E2E2E204A30390A004A303900425B
:10364000656420646F6E652E0020573A0042656401
:103650002048656174696E672E00205A3A0020592F
:103660003A0020436F756E7420583A0020453A00A6
:10367000205A3A0020593A00583A003A0043617003
:103680003A00205A00205900580020204D61783A15
:103690002000205A00205900580020204D696E3A21
:1036A00020004F6E20004F666600536F66742065E1
:1036B0006E6473746F70733A20004B64200023644F
:1036C0006566696E65202044454641554C545F004F
:1036D0004B69200023646566696E65202044454679
:1036E00041554C545F004B70200023646566696E41
:1036F00065202044454641554C545F0050494420C4
:103700004175746F74756E652066696E697368655E
:1037100064212050757420746865206C6173742076
:103720004B702C204B6920616E64204B6420636FCA
:103730006E7374616E74732066726F6D2062656C57
:103740006F7720696E746F20436F6E66696775725C
:103750006174696F6E2E680A005049442041757487
:103760006F74756E65206661696C6564212074698B
:103770006D656F75740A00544845524D414C205296
:10378000554E4157415900546865726D616C205225
:10379000756E617761790048656174696E6720664E
:1037A00061696C65640048656174696E6720666173
:1037B000696C656400504944204175746F74756E7E
:1037C00065206661696C6564212054656D70657261
:1037D000617475726520746F6F20686967680A008C
:1037E000204B643A2000204B693A2000204B703A6D
:1037F00020000A20436C61737369632050494420A0
:103800000A002054753A2000204B753A2000206DA4
:1038100061783A2000206D696E3A200020643A20D9
:103820000020626961733A20004B494C4C45442E9C
:10383000200053544F505045442E20005072696E62
:103840007465722073746F70706564206475652090
:10385000746F206572726F72732E204669782074BF
:103860006865206572726F7220616E642075736581
:10387000204D39393920746F207265737461727408
:103880002E202854656D70657261747572652069AB
:10389000732072657365742E2053657420697420DB
:1038A00061667465722072657374617274696E67A3
:1038B000290A004E6F20436865636B73756D20772E
:1038C000697468206C696E65206E756D6265722C16
:1038D000204C617374204C696E653A200063686502
:1038E000636B73756D206D69736D617463682C20F3
:1038F0004C617374204C696E653A20004C696E65AA
:10390000204E756D626572206973206E6F74204C55
:10391000617374204C696E65204E756D6265722B03
:10392000312C204C617374204C696E653A20004D37
:10393000313130004D3331005344207265616420D1
:103940006572726F720A00446F6E65207072696EE4
:1039500074696E672066696C650A001000C9021000
:10396000012C014001220170011801B0010E01F08B
:103970000104015002FA00B002F0003003E600D06A
:1039800003DC009004D2007005C800A006BE000051
:1039900008B400B009AA00D00BA000600E96006029
:1039A000118C000015820020197800C01D6E00A047
:1039B000226400B0275A00902C500000314600E0ED
:1039C000343C0010383200903A2800603C1E00A0C1
:1039D0003D1400803E0A00203F000070012C019041
:1039E000012701B0012201C0011D01F001180110E1
:1039F00002130130020E016002090190020401C0AD
:103A000002FF000003FA004003F5008003F000D03D
:103A100003EB002004E6007004E100E004DC004059
:103A200005D700C005D2004006CD00D006C80080F2
:103A300007C3003008BE00F008B900C009B400B0E8
:103A40000AAF00B00BAA00D00CA500000EA00050D9
:103A50000F9B00C01096005012910000148C00C003
:103A6000158700B0178200B0197D00D01B780000C8
:103A70001E730040206E0090226900F02464004014
:103A8000275F0090295A00E02B5500102E5000208F
:103A9000304B0010324600E033410090353C0010BE
:103AA00037370070383200A0392D00B03A2800A016
:103AB0003B2300603C1E00103D1900903D14001097
:103AC0003E0F00703E0A00C03E0500003F0000406F
:103AD0003FFBFF803FF6FFC03FF1FF544845524D8A
:103AE000414C2052554E4157415900546865726D02
:103AF000616C2052756E61776179004572723A206F
:103B00004D494E54454D5020424544004572723A4D
:103B1000204D494E54454D50004D494E54454D5051
:103B200020747269676765726564004572723A2035
:103B30004D415854454D5020424544004572723A1B
:103B4000204D415854454D50004D415854454D501D
:103B50002074726967676572656400202800202FF1
:103B6000002042403A0020403A0000060900FE00D2
:103B70000000000001090008FE000005080806001A
:103B80000040F0C88888987810050808060000C032
:103B9000F88888888888F80505050600012030F82F
:103BA00030200508080600002070F820202020E0C2
:103BB0000509090600FF2070A8A8B88888702005AC
:103BC00009090600FFE080C0B0A8283028280509B0
:103BD000090600FFF8A88888888888A8F8050A0AD6
:103BE0000600FE205050505088A8A8887003030398
:103BF00006000340A040290A002062797465733BE7
:103C000020637263200053657474696E6773205378
:103C1000746F726564202800202863616C63756C82
:103C20006174656429210A0020213D20004545502A
:103C3000524F4D20435243206D69736D6174636828
:103C4000202D202873746F726564292000290A00D2
:103C50002062797465733B20637263200020737463
:103C60006F7265642073657474696E677320726522
:103C700074726965766564202800204D61726C69F4
:103C80006E3D563437290A0028454550524F4D3D68
:103C900000454550524F4D2076657273696F6E2016
:103CA0006D69736D61746368200042616279737439
:103CB0006570205A004D3630302042300043686134
:103CC0006E67652066696C616D656E740042616245
:103CD0007973746570205A00466C6F7700466C6F7C
:103CE0007700466C6F770046616E2073706565647F
:103CF0000046616E2073706565640046616E2073D6
:103D000070656564004265640042656400426564F4
:103D1000004E6F7A7A6C65004E6F7A7A6C65004E51
:103D20006F7A7A6C6500426564205A0042656420AF
:103D30005A00537065656400537065656400537084
:103D4000656564004D61696E0050726568656174F7
:103D500020504C4120456E64005072656865617466
:103D600020504C4120426564005072656865617462
:103D700020504C4100507265706172650050726550
:103D8000686561742041425320456E64005072653D
:103D90006865617420414253204265640050726539
:103DA00068656174204142530050726570617265AC
:103DB000004261636B004E65787420636F726E65BC
:103DC00072005654726176206D696E0056547261AD
:103DD00076206D696E005654726176206D696E00B2
:103DE000566D696E00566D696E00566D696E0056AF
:103DF0006D6178204500566D6178204500566D61F3
:103E000078204500566D6178205A00566D61782003
:103E10005A00566D6178205A00566D61782059001D
:103E2000566D6178205900566D6178205900566DA5
:103E30006178205800566D6178205800566D617881
:103E40002058004D6F74696F6E00416D6178204598
:103E500000416D6178204500416D6178205A004134
:103E60006D6178205A00416D6178205900416D6183
:103E700078205900416D6178205800416D617820AB
:103E80005800412D74726176656C00412D74726129
:103E900076656C00412D7265747261637400412D0A
:103EA0007265747261637400416363656C004163A1
:103EB00063656C004D6F74696F6E0056652D6A65A1
:103EC000726B0056652D6A65726B0056652D6A65CA
:103ED000726B00567A2D6A65726B00567A2D6A6590
:103EE000726B0056792D6A65726B0056792D6A6582
:103EF000726B0056792D6A65726B0056782D6A6573
:103F0000726B0056782D6A65726B0056782D6A6563
:103F1000726B004D6F74696F6E00457374657073DA
:103F20002F6D6D004573746570732F6D6D005A733E
:103F3000746570732F6D6D005A73746570732F6D97
:103F40006D005973746570732F6D6D0059737465CE
:103F500070732F6D6D005873746570732F6D6D00E5
:103F60005873746570732F6D6D004D6F74696F6E4B
:103F70000043616E6E6F74206F70656E20737562A2
:103F800064697220006175746F25692E67004D3277
:103F900034004D323320257300656E71756575658B
:103FA000696E672022005446542053657269616C23
:103FB0002044656275673A205344207072696E74BC
:103FC000207061757365642E2E2E204A30350A00EC
:103FD0004A3035005446542053657269616C204460
:103FE000656275673A2046696C616D656E74207212
:103FF000756E6F7574207768696C65207072696E74
:1040000074696E672E2E2E204A32330A004A3233EC
:10401000004F66660A004661646520486569676806
:10402000742000426564204C6576656C696E67207B
:10403000004661696C656420746F20656E61626C16
:104040006520426564204C6576656C696E670A0080
:104050004D65736820426564204C6576656C20640C
:104060006174613A0A004D65736820706F696E74FF
:104070002063616E6E6F74206265207265736F6C71
:104080007665640A004D34323120696E636F727256
:1040900065637420706172616D65746572207573FB
:1040A0006167650A004F666673657473206170709E
:1040B0006C696564004572723A20546F6F206661C6
:1040C000722100546F6F206661722066726F6D20DE
:1040D0007265666572656E636520706F696E740ADD
:1040E0000043616E6E6F7420656E74657220737527
:1040F000626469723A200057726974696E6720744D
:104100006F2066696C653A20006F70656E2066618D
:10411000696C65642C2046696C653A20006F706597
:104120006E206661696C65642C2046696C653A2076
:104130000046696C652073656C65637465640A008C
:104140002053697A653A200046696C65206F706576
:104150006E65643A20006F70656E206661696C65FB
:10416000642C2046696C653A20002066696C653ACB
:104170002000646F696E67006672657368004E6F39
:10418000772000454E4420535542524F5554494ED6
:10419000450A002220706F73002220706172656EE4
:1041A000743A2200535542524F5554494E452043CC
:1041B000414C4C207461726765743A22004B494C43
:1041C0004C45442E2000747279696E6720746F200C
:1041D00063616C6C207375622D67636F6465206624
:1041E000696C6573207769746820746F6F206D61E6
:1041F0006E79206C6576656C732E204D4158206C6D
:104200006576656C2069733A00486F6D652025738B
:104210002573257320666972737400206669727352
:10422000740A005A0059005800486F6D6520005309
:10423000442063617264206F6B0A006F70656E5278
:104240006F6F74206661696C65640A00766F6C75C7
:104250006D652E696E6974206661696C65640A001B
:104260004572726F723A00534420696E6974206619
:1042700061696C0A006563686F3A000000210024E0
:104280000027002A002D0030003300010100000447
:104290000107010A0100002200250028002B002E42
:1042A000003100340002010000050108010B01008B
:1042B0000020002300260029002C002F00320000DF
:1042C00001000003010601090105050505070508B0
:1042D000080808020202020A0A0808040404040189
:1042E00001010101010101030303030303030304AB
:1042F0000707070C0C0C0C0C0C0C0C02020202063B
:10430000060606060606060B0B0B0B0B0B0B0B012A
:1043100002102020080810204010204080020102D6
:10432000010804020101020408102040808040209E
:1043300010080402018004020180402010080402D9
:104340000108040201010204081020408001020457
:10435000081020408000000A0B02090C0D0E08070F
:104360000304010000000000000000000000000045
:10437000000000000000000000000000000000003D
:1043800000121110000000000000000000000000FA
:104390000000000000000000000000003E012201BB
:1043A00011241FBECFEFD1E2DEBFCDBF00E00CBFB6
:1043B00014E0A0E0B2E0EEEAFFE802E00BBF02C0CA
:1043C00007900D92A03AB107D9F729E1A0EAB4E02D
:1043D00001C01D92A334B207E1F711E2CFECD1E2A4
:1043E00000E006C021970109802FFE010F942847A5
:1043F000CE3CD10780E00807A9F70F94B9310D949E
:10440000C6470C9400002F923F924F925F926F929A
:104410007F928F929F92AF92BF92CF92DF92EF9254
:10442000FF920F931F93CF93DF93CDB7DEB7C356A1
:10443000D1090FB6F894DEBF0FBECDBF81E090E08A
:1044400090937B0B80937A0B809167058D3411F4E8
:104450000C945E2B843511F40C946238873421F06F
:10446000E5E7F2E40C94A3382090650530906605EA
:104470002BE12216310409F4D4C5E4F444E02416F7
:1044800031044CF452E0251631040CF041C037FEE3
:1044900038C00C94BB3884E02816310409F47AC57E
:1044A0009AE12916310411F00C94BB380E94524E47
:1044B0000C94BB38AAE22A16310411F40C94D32AC6
:1044C00064F4ECE12E16310409F4DBC5FDE12F168E
:1044D000310409F4DBC50C94BB382BE522163104FA
:1044E00009F4DBC73CE52316310409F4DBC74AE5D0
:1044F0002416310411F00C94BB381092A5040C94CE
:10450000BB388091130281110C94C2380C94BB38D3
:1045100080911302882311F40C94BB380E943366F7
:1045200082E50E94F44C882309F43EC10E94014AAE
:104530004B015C0120E030E0A9010F94E03F8823AB
:1045400009F45EC18091AA049091AB04A091AC04DF
:10455000B091AD0488AB99ABAAABBBAB2091AE04D4
:104560003091AF044091B0045091B1042CAB3DABFD
:104570004EAB5FAB8091890F90918A0FA0918B0F0A
:10458000B0918C0F88AF99AFAAAFBBAF20918D0FC0
:1045900030918E0F40918F0F5091900F2CAF3DAF07
:1045A0004EAF5FAF9C01AD0168A979A98AA99BA90B
:1045B0000F94E03F81110DC02CAD3DAD4EAD5FAD10
:1045C0006CA97DA98EA99FA90F94E03F882309F4C7
:1045D00017C111E032E02316310409F010E020E0A9
:1045E00030E0A901C501B4010F94E03F881F88277E
:1045F000881F181759F080E090E0A0E8BFEB2C96D8
:104600008CAF9DAFAEAFBFAF2C970AC020E030E0BB
:1046100040E85FE32C962CAF3DAF4EAF5FAF2C97D9
:1046200028A939A94AA95BA968AD79AD8AAD9BAD26
:104630000F942B4424966CAF7DAF8EAF9FAF249721
:104640002CA93DA94EA95FA96CAD7DAD8EAD9FADE6
:104650000F942B446B017C0124962CAD3DAD4EADE7
:104660005FAD2497CA01B9010F9445402B013C016D
:10467000A7019601C701B6010F9445409B01AC010B
:10468000C301B2010F942C440F94974628966CAF47
:104690007DAF8EAF9FAF289720E030E040E05FE332
:1046A0000F9445402B013C01A5019401C501B401C3
:1046B0000F9445404B015C01A3019201C301B2017B
:1046C0000F9445409B01AC01C501B4010F942B44EC
:1046D0000F9497462C962CAD3DAD4EAD5FAD2C970B
:1046E0000F9445404B015C01C701B60190582896D4
:1046F0002CAD3DAD4EAD5FAD28970F940845A5019B
:1047000094010F9445406B017C0128AD39AD4AAD51
:104710005BAD68A979A98AA99BA90F942C4420E0D4
:1047200030E040E05FE30F9445409B01AC01C701DE
:10473000B6010F942C4428A939A94AA95BA90F9462
:104740002B446B017C012CAD3DAD4EAD5FAD6CA932
:104750007DA98EA99FA90F942C4420E030E040E071
:104760005FE30F9445402B013C0128962CAD3DADF5
:104770004EAD5FAD289724966CAD7DAD8EAD9FADEF
:1047800024970F940845A50194010F9445409B017F
:10479000AC01C301B2010F942C442CA93DA94EA930
:1047A0005FA90F942B4414C089E40E94F44C882321
:1047B00029F00E94014A6B017C0103C0C12CD12C5D
:1047C00076018AE40E94F44C8823E9F00E94014AB1
:1047D00068AF79AF8AAF9BAF20E030E0A901C70195
:1047E000B6010F94E03F81111BC020E030E0A90129
:1047F00068AD79AD8AAD9BAD0F94E03F811110C0DB
:10480000E0E6F2E4B3C320E030E0A901C701B6015D
:104810000F94E03F8823A1F318AE19AE1AAE1BAE79
:10482000D701C601B05888AB99ABAAABBBAB28ADDA
:1048300039AD4AAD5BAD50582CAB3DAB4EAB5FAB29
:104840009C01AD01BC01CD010F9445404B015C01C1
:104850002CA93DA94EA95FA9CA01B9010F944540F1
:104860009B01AC01C501B4010F942C440F949746F1
:1048700068966CAF7DAF8EAF9FAF68978091AA04AA
:104880009091AB04A091AC04B091AD048CAF9DAFFE
:10489000AEAFBFAFA7019601BC01CD010F942C4470
:1048A0002C966CAF7DAF8EAF9FAF2C972091AE044E
:1048B0003091AF044091B0045091B10428962CAFD0
:1048C0003DAF4EAF5FAF289728AD39AD4AAD5BAD78
:1048D00028966CAD7DAD8EAD9FAD28970F942C447E
:1048E0006C966CAF7DAF8EAF9FAF6C978091890F48
:1048F00090918A0FA0918B0FB0918C0F60968CAF26
:104900009DAFAEAFBFAF60972C962CAD3DAD4EAD19
:104910005FAD2C97BC01CD010F942B446B017C0142
:1049200020918D0F30918E0F40918F0F5091900FED
:1049300064962CAF3DAF4EAF5FAF64976C962CADD5
:104940003DAD4EAD5FAD6C9764966CAD7DAD8EADFB
:104950009FAD64970F942B444B015C018091B2048E
:104960009091B304A091B404B091B504A0968CAF1B
:104970009DAFAEAFBFAFA0979C01AD016091910F0D
:104980007091920F8091930F9091940F0F942B44FC
:1049900024966CAF7DAF8EAF9FAF2497A701960191
:1049A00068A979A98AA99BA90F9445402B013C01CC
:1049B000A50194016CA97DA98EA99FA90F944540DA
:1049C0009B01AC01C301B2010F942C442B013C01AB
:1049D000A501940168A979A98AA99BA90F944540CA
:1049E0004B015C01A70196016CA97DA98EA99FA925
:1049F0000F9445409B01AC01C501B4010F942B44B9
:104A0000A30192010F949F446B017C0120E030E0F0
:104A1000A9010F94E03F87FF0AC02BED3FE049EC6E
:104A200050E4C701B6010F942C446B017C0192E065
:104A30002916310451F42BED3FE049EC50E4C70155
:104A4000B6010F942B446B017C0120E030E0A901FA
:104A5000C701B6010F94E03F811126C060962CADCE
:104A60003DAD4EAD5FAD60976CAD7DAD8EAD9FAD94
:104A70000F94E03F811118C064962CAD3DAD4EAD52
:104A80005FAD649728966CAD7DAD8EAD9FAD2897D8
:104A90000F94E03F811108C04BEDC42E4FE0D42E9F
:104AA00049ECE42E40E4F42EA701960168966CAD23
:104AB0007DAD8EAD9FAD68970F9445409B01AC01D5
:104AC0000F9445404B015C0124962CAD3DAD4EAD9D
:104AD0005FAD2497CA01B9010F9445409B01AC0119
:104AE000C501B4010F942C440F9497464B015C010F
:104AF0002FE632E143E85AE30F94E03F87FD2FC2EF
:104B0000C501B4010F94A1450F94754526967FAF5A
:104B10006EAF2697DB01AB2B31F4E1E0F0E0269697
:104B2000FFAFEEAF26974090B6045090B704609068
:104B3000B8047090B90426962EAD3FAD2697B90102
:104B400080E090E00F94E43F4B015C019B01AC01DD
:104B5000C701B6010F9408456CAF7DAF8EAF9FAF14
:104B6000A501940124966CAD7DAD8EAD9FAD2497CB
:104B70000F94084568966CAF7DAF8EAF9FAF689776
:104B8000A30192016091950F7091960F8091970FFC
:104B90009091980F0F942B44A50194010F94084510
:104BA000A4966CAF7DAF8EAF9FAFA4972CAD3DADFB
:104BB0004EAD5FADCA01B9010F94454020E030E031
:104BC00040E05FE30F9445409B01AC0160E070E082
:104BD00080E89FE30F942B4460966CAF7DAF8EAF5F
:104BE0009FAF6097A0968CAD9DADAEADBFADA097C9
:104BF00089879A87AB87BC874D865E866F86788A61
:104C00006091020270910302072E000C880B990B31
:104C10000F94E63F2091090230910A0240910B0265
:104C200050910C020F9445402AE037ED43E25CE3DB
:104C30000F9445406CA77DA78EA79FA70F946F295F
:104C40009B01AC0128533F4F4F4F5F4F64962CAFF1
:104C50003DAF4EAF5FAF649748A859A86AA87BA83C
:104C600022242394312C39E121963FAF21972696B7
:104C70004EAD5FAD26974215530509F435C10E942C
:104C800046770F946F29DC01CB0164962CAD3DADC6
:104C90004EAD5FAD6497821B930BA40BB50BB7FDB4
:104CA00011C00F946F299B01AC0128533F4F4F4F08
:104CB0005F4F64962CAF3DAF4EAF5FAF649780E01F
:104CC0000E94FA5B21963FAD2197315021963FAF6C
:104CD0002197332309F441C02CA93DA94EA95FA90E
:104CE00060966CAD7DAD8EAD9FAD60970F944540E5
:104CF0006B017C019201A3016CAD7DAD8EAD9FADCA
:104D00000F944540A70196010F942C447B018C0120
:104D10009201A30160966CAD7DAD8EAD9FAD6097A5
:104D20000F9445404B015C012CA93DA94EA95FA9F8
:104D30006CAD7DAD8EAD9FAD0F9445409B01AC0138
:104D4000C501B4010F942B442B013C01C701D801CC
:104D50008CAB9DABAEABBFAB4FC0B10180E090E080
:104D60000F94E43F2CAD3DAD4EAD5FAD0F9445408B
:104D70004B015C010F9405456B017C01C501B40139
:104D80000F948D464B015C01A701960168A979A992
:104D90008AA99BA90F9445402B013C0128AD39AD50
:104DA0004AAD5BADC501B4010F944540A30192012A
:104DB0000F942C442B013C01A501940168A979A909
:104DC0008AA99BA90F9445404B015C0128AD39ADE0
:104DD0004AAD5BADC701B6010F9445409B01AC01E4
:104DE000C501B4010F942B446CAB7DAB8EAB9FAB74
:104DF00049E121964FAF21979201A3012C966CAD0A
:104E00007DAD8EAD9FAD2C970F942C4469837A8332
:104E10008B839C832CA93DA94EA95FA96C966CAD90
:104E20007DAD8EAD9FAD6C970F942C446D837E83CA
:104E30008F83988768962CAD3DAD4EAD5FAD68977A
:104E400069857A858B859C850F942C4469877A8740
:104E50008B879C87A4962CAD3DAD4EAD5FADA497DE
:104E60006D857E858F8598890F942C446D877E870C
:104E70008F87988B80913702882321F0CE0101968D
:104E80000E94AD91E090200F89819A81AB81BC8115
:104E900088A399A3AAA3BBA38D819E81AF81B88566
:104EA0008CA39DA3AEA3BFA389859A85AB85BC8542
:104EB00088A799A7AAA7BBA7CE0180960E9492E9CE
:104EC0008E01045D1F4F9E01235F3F4FAE01485D81
:104ED0005F4FBE016C5D7F4FCE0180960F94982C82
:104EE0005FEF251A350AC3CEE090200F8091890F1D
:104EF00090918A0FA0918B0FB0918C0F88A399A3EA
:104F0000AAA3BBA380918D0F90918E0FA0918F0FBC
:104F1000B091900F8CA39DA3AEA3BFA38091910FDE
:104F20009091920FA091930FB091940F88A799A799
:104F3000AAA7BBA7CE0180960E9492E98E01045DCC
:104F40001F4F25E93FE0AE01485D5F4FBE016C5D3C
:104F50007F4FCE0180960F94982C0E94484E0E945D
:104F60009AE90C94BB380E94A5E9F80184918F015D
:104F70000F5F1F4F8111F7CFE9E5F3E084918F01B7
:104F80000F5F1F4F882311F40C94BB380E94A5E9D2
:104F9000F801F4CF80E50E94F44C882329F00E94A8
:104FA00073E96B017C0103C0C12CD12C760183E530
:104FB0000E94F44C882361F00E94014A20E030E016
:104FC0004AE754E40F9445400F9475456B017C010A
:104FD0000E94067B80915402811105C060E08FE63B
:104FE00093E00E943B990E949AE98091FD0590917F
:104FF000FE05A091FF05B0910006C80ED91EEA1E5D
:10500000FB1E0F946F29DC01CB018C199D09AE09A1
:10501000BF09B7FD02C00C94BB3880E00E94FA5B68
:10502000F0CF0F94DD2181110C94BB3880E090E02B
:10503000A0EAB0E489839A83AB83BC8380E090E0EC
:10504000ADE4B3E48D839E83AF83B88780E090E0C6
:10505000A0EAB1E489879A87AB87BC8780E50E9484
:10506000F44C882319F00E94D14901C060E068A384
:10507000BE016F5F7F4FCE0180960E940CAD0C94F5
:10508000BB3880E00E94316A0C94BB3883E50E94F3
:10509000F44C882321F00E94E149282F01C020E030
:1050A000022F10E00630110570F0E1E3F4E0849186
:1050B0008F010F5F1F4F882311F40C94BB380E949F
:1050C000A5E9F801F4CF223009F44DC028F42223D9
:1050D00071F0213091F1C2C1243009F4B0C108F45B
:1050E00046C1253009F0BAC10E946268B7C18091FB
:1050F000040E811103C0E1E1F4E013C08091090EB8
:10510000882319F060E373E002C064E373E089E090
:1051100094E00F94542A8AE00E94A5E90E948065D9
:105120009DC184917F019FEFE91AF90A882309F450
:1051300095C10E94A5E9F701F4CF0E9498AD1092A5
:105140000102109200028091030E882319F082E080
:1051500094E002C087EF93E09093740F8093730FF5
:105160000E94D3E87BC1409100025091010257FF99
:105170000EC0EEECF3E084918F010F5F1F4F882388
:1051800011F40C94BB380E94A5E9F801F4CF411545
:10519000510529F4809137028093A6042FC08FEF28
:1051A000840F63E00F94F44680FF02C0291B922F06
:1051B000292F990F330BF901EE0FFF1FE20FF31F99
:1051C000E80FF11D87FDFA95EE0FFF1FEE0FFF1F91
:1051D000E753F44F8091B2049091B304A091B404CA
:1051E000B091B50480839183A283B3838091A60498
:1051F00080933702493051050CF06EC0842F63E074
:105200000F94F44680FF03C022E0291B922F4091A7
:10521000B2045091B3046091B4047091B5044CA7EA
:105220005DA76EA77FA719821A821B821C8240E0AD
:1052300050E060EA70E448A359A36AA37BA3A4E00A
:105240008A0290011124F901EE5CFC4E6F01F4E03A
:105250009F0290011124A901425C5C4E7A019E01DB
:105260002F5F3F4FAE01405E5F4FB601C7010E9406
:10527000406919821A821B821C82BE016F5F7F4FB8
:10528000CE018C960E942A6AF70180819181A281C9
:10529000B3818093AA049093AB04A093AC04B09321
:1052A000AD04F60180819181A281B3818093AE0427
:1052B0009093AF04A093B004B093B1041092030E86
:1052C0001092370280910002909101020196909312
:1052D000010280930002C2C080E090E0A0EAB0E446
:1052E0008093B2049093B304A093B404B093B50434
:1052F0000E94F3680E94067B8FEF9FEF909301025C
:1053000080930002EAEBF3E084917F012FEFE21A31
:10531000F20A882321F00E94A5E9F701F5CF83E97D
:1053200092E09A838983B4E6EB2EF12CF9A2E8A2ED
:10533000BE016F5F7F4FCE0180960F94E11A8AEB1A
:1053400092E09A838983F9A2E8A2BE016F5F7F4F42
:10535000CE0180960F94E11A81E08093040E0E94A2
:10536000316A81E00E9447681092030E77C088E599
:105370000E94F44C8823B1F00E94D149FF24FA9492
:10538000F60E32E03F15A8F4E3EAF3E084918F01D2
:105390000F5F1F4F882311F40C94BB380E94A5E9BE
:1053A000F801F4CF88E50E94A5E90F941F300C9412
:1053B000BB3889E50E94F44C8823B1F00E94D149A2
:1053C000EE24EA94E60E42E04E15A8F4ECE8F3E091
:1053D00084918F010F5F1F4F882311F40C94BB3809
:1053E0000E94A5E9F801F4CF89E50E94A5E90F9490
:1053F0001F300C94BB388AE50E94F44C8823C1F01E
:105400000E94014A2F2D30E0F901EE0FFF1FE20F3D
:10541000F31FEE0DF11DE7FCFA95EE0FFF1FEE0FE7
:10542000FF1FE753F44F608371838283938316C019
:105430008AE50E94A5E90F941F300C94BB388AE5D9
:105440000E94F44C8823A1F30E94014A6093050E48
:105450007093060E8093070E9093080E0150110969
:1054600002301105B0F460910002709101026A30BF
:10547000710514F069E070E08DE793E00F943B2A2A
:1054800069E070E088E793E00F943B2A8AE00E948D
:10549000A5E90E9437E20C94BB3881E08093A50413
:1054A0000C94BB380E94067B8CEA92E099AF88AFDF
:1054B00025E0E22E26E0F22E3AEAC32E34E0D32E87
:1054C00046EF242E4BE0342E00E010E018AAA8ADE1
:1054D000B9AD8D91B9AFA8AF0E94F44C882309F4FF
:1054E0004CC00E94014A4B015C010CAB033049F0F7
:1054F000F10120813181428153810F942B444B0172
:105500005C01D6012D913D914D915C91C501B40195
:105510000F942B442B013C012DEB37E346E855EB70
:105520000F94524687FD0AC02DEB37E346E855E35A
:10553000C301B2010F94E03F1816FCF4BCA9B330CC
:1055400059F48092B6049092B704A092B804B09235
:10555000B904E1E0E8AB11C0A3019201D7016D915C
:105560007D918D919C910F942C44F7016083718300
:1055700082839383C8010E94FE6A0F5F1F4FF4E08D
:10558000EF0EF11C24E0C20ED11C34E0230E311CBE
:105590000430110509F09BCF48A9442309F479CFC1
:1055A0000F949E1F76CF80911302882311F40C94E0
:1055B000BB3889E40E94F44CE82E882321F00E9435
:1055C000D149062F01C000E08AE40E94F44CF82E75
:1055D000882321F00E94D149162F01C010E0EE204F
:1055E00011F0033020F4FF2081F0133070F0E8E474
:1055F000F4E084918F010F5F1F4F882311F40C9406
:10560000BB380E94A5E9F801F4CF0E94004DEE20BE
:1056100091F054E00502F0011124E25CFC4E80811F
:105620009181A281B3818093890F90938A0FA09377
:105630008B0FB0938C0FFF2091F084E01802F001E3
:105640001124EE5CFC4E80819181A281B381809314
:105650008D0F90938E0FA0938F0FB093900F80E5D6
:105660000E94F44C882319F00E94F24903C080E59F
:105670000E94384A86E40E94F44C8823D9F00E94A4
:10568000014A6B017C0120E030E0A9010F945246F1
:10569000181684F420E030E040E752E4C701B60178
:1056A0000F9408456093090270930A0280930B02DD
:1056B00090930C020E94935F0C94BB388091650517
:1056C000909166058337910509F4E3C10CF0C4C0DD
:1056D0008C34910509F4CBC40CF056C08931910586
:1056E00009F4FAC21CF58431910509F4D5C17CF4A2
:1056F0008131910509F45DC22CF4029708F4CFC101
:105700000C94BB38429709F4E7C60C94BB38863139
:10571000910509F4A6C20CF4A0C28731910509F4E1
:10572000A6C2489709F4B9C20C94BB388F319105D1
:1057300009F481C394F48B31910509F4E9C20CF4A6
:10574000D9C28C31910509F420C34E9711F00C9405
:10575000BB380E94C66D0C94BB388A32910509F49F
:1057600020C42CF4809709F41AC30C94BB388133FD
:10577000910509F457C48B34910511F00C94BB3892
:105780000F9481220C94BB388936910509F499C590
:10579000B4F58435910509F49FC6E4F4813591058B
:1057A00009F480C64CF48D34910511F00C94BB388B
:1057B0000F941B110C94BB388235910509F489C6EE
:1057C0008335910511F00C94BB3881E08093A404DB
:1057D0000C94BB388C35910509F4C8C634F4853572
:1057E000910509F4AAC60C94BB388436910509F4D6
:1057F00042C48836910509F442C40C94BB388E36F5
:10580000910509F48EC49CF48B36910509F4C1C549
:105810000CF49CC58C36910509F408C58D369105AC
:1058200011F00C94BB380E947E6B0C94BB3880370F
:10583000910509F4FEC40CF487C48137910509F47D
:10584000FCC48237910511F00C94BB380E94067B92
:105850000E9437E20C94BB38823E910511F40C94FF
:105860004C360CF083C08E3B910509F46CC5ECF509
:105870008937910509F495C71CF58637910509F418
:105880004EC774F48537910511F00C94BB3860E075
:1058900080916305909164050E9458990C94BB38DF
:1058A0008737910509F47AC78837910511F00C9470
:1058B000BB3881E080934B1380934A130C94BB3820
:1058C0008C38910509F4E3C434F48D37910509F45B
:1058D00070C50C94BB388139910509F467C78B39C1
:1058E000910509F40BC50C94BB388D3C910511F45E
:1058F0000C944635C4F4893C910511F40C949D3404
:1059000034F4883C910509F4C8C70C94BB388B3C2F
:10591000910511F40C94BD348C3C910511F40C9458
:10592000DC340C94BB38833D910511F40C94F735AD
:105930008CF48E3C910511F00C94BB384CEAC42ECB
:1059400042E0D42E55E5E52E5CE0F52E00E010E0B7
:105950000C94BB358C3D910511F40C94FA358D3DBA
:10596000910511F40C9407360C94BB38843AA1E0ED
:105970009A0711F40C941F38F4F58F32E1E09E077A
:1059800011F40C941938DCF48C3221E0920711F4F4
:105990000C9481363CF48232914011F40C947636AA
:1059A0000C94BB388D3251E0950711F40C94AA3653
:1059B0008E32914011F40C94C5370C94BB38833669
:1059C000B1E09B0709F461C03CF48033914011F4CD
:1059D0000C9448370C94BB38803921E0920711F4BD
:1059E0000C941C388A39914011F00C94BB380F94F8
:1059F000631A0C94BB38863F41E0940711F40C9471
:105A00002838FCF48C3AA1E09A0711F40C9422385F
:105A10004CF4853A914011F00C94BB380F947918EE
:105A20000C94BB38843FF1E09F0711F40C942538A7
:105A3000853F914011F00C94BB380E9429F80C94DA
:105A4000BB388A3932E09307E1F07CF4873F51E0BC
:105A5000950711F40C942B388835924011F00C9472
:105A6000BB380F9431160C94BB38803AB3E09B07D7
:105A700009F4D4C1873E934011F40C944D380C9432
:105A8000BB38E3EDF7E00C94CE35E0E6F2E40C949D
:105A90003A38E2E6F6E0F2C5E3EBF4E09EC0A0900F
:105AA0006305B090640580E50E94F44C882359F0AA
:105AB0000E9473E96B017C0111E0672B682B692B55
:105AC00031F410E004C010E0C12CD12C760183E544
:105AD0000E94F44C8823F1F00E94014A20E030E05B
